{
  "contractName": "Funder",
  "abi": [
    {
      "inputs": [],
      "name": "Count",
      "outputs": [
        {
          "internalType": "uint256",
          "name": "",
          "type": "uint256"
        }
      ],
      "stateMutability": "view",
      "type": "function",
      "constant": true
    },
    {
      "inputs": [
        {
          "internalType": "uint256",
          "name": "",
          "type": "uint256"
        }
      ],
      "name": "Fundings",
      "outputs": [
        {
          "internalType": "address",
          "name": "",
          "type": "address"
        }
      ],
      "stateMutability": "view",
      "type": "function",
      "constant": true
    },
    {
      "stateMutability": "payable",
      "type": "receive",
      "payable": true
    },
    {
      "inputs": [],
      "name": "Transfer",
      "outputs": [],
      "stateMutability": "payable",
      "type": "function",
      "payable": true
    },
    {
      "inputs": [
        {
          "internalType": "uint256",
          "name": "Val",
          "type": "uint256"
        }
      ],
      "name": "Withdraw",
      "outputs": [],
      "stateMutability": "nonpayable",
      "type": "function"
    }
  ],
  "bytecode": "0x608060405234801561001057600080fd5b506104ea806100206000396000f3fe6080604052600436106100435760003560e01c8063406dade31461004f5780635b6b431d14610059578063879f3b601461008257806393a8333e146100bf5761004a565b3661004a57005b600080fd5b6100576100ea565b005b34801561006557600080fd5b50610080600480360381019061007b919061030d565b610167565b005b34801561008e57600080fd5b506100a960048036038101906100a4919061030d565b6101fc565b6040516100b6919061037b565b60405180910390f35b3480156100cb57600080fd5b506100d461022f565b6040516100e191906103a5565b60405180910390f35b600015156100f6610235565b151503610165573360016000806000815480929190610114906103ef565b91905055815260200190815260200160002060006101000a81548173ffffffffffffffffffffffffffffffffffffffff021916908373ffffffffffffffffffffffffffffffffffffffff1602179055505b565b671bc16d674ec800008111156101b2576040517f08c379a00000000000000000000000000000000000000000000000000000000081526004016101a990610494565b60405180910390fd5b3373ffffffffffffffffffffffffffffffffffffffff166108fc829081150290604051600060405180830381858888f193505050501580156101f8573d6000803e3d6000fd5b5050565b60016020528060005260406000206000915054906101000a900473ffffffffffffffffffffffffffffffffffffffff1681565b60005481565b600080600090505b60005481116102c9573373ffffffffffffffffffffffffffffffffffffffff166001600083815260200190815260200160002060009054906101000a900473ffffffffffffffffffffffffffffffffffffffff1673ffffffffffffffffffffffffffffffffffffffff16036102b65760019150506102cf565b80806102c1906103ef565b91505061023d565b50600090505b90565b600080fd5b6000819050919050565b6102ea816102d7565b81146102f557600080fd5b50565b600081359050610307816102e1565b92915050565b600060208284031215610323576103226102d2565b5b6000610331848285016102f8565b91505092915050565b600073ffffffffffffffffffffffffffffffffffffffff82169050919050565b60006103658261033a565b9050919050565b6103758161035a565b82525050565b6000602082019050610390600083018461036c565b92915050565b61039f816102d7565b82525050565b60006020820190506103ba6000830184610396565b92915050565b7f4e487b7100000000000000000000000000000000000000000000000000000000600052601160045260246000fd5b60006103fa826102d7565b91507fffffffffffffffffffffffffffffffffffffffffffffffffffffffffffffffff820361042c5761042b6103c0565b5b600182019050919050565b600082825260208201905092915050565b7f506c65617365205769746864726177204d757374203c3d203245544800000000600082015250565b600061047e601c83610437565b915061048982610448565b602082019050919050565b600060208201905081810360008301526104ad81610471565b905091905056fea264697066735822122045423b8be93520829c2046fd8bf43c553ea8a425228d9a2e40ea6be27e4e196a64736f6c63430008120033",
  "immutableReferences": {},
  "source": "// SPDX-License-Identifier: MIT\r\npragma solidity >=0.4.22 <0.9.0;\r\n\r\ncontract Funder {\r\n    uint256 public Count;\r\n    mapping(uint256 => address) public Fundings;\r\n\r\n    receive() external payable {}\r\n\r\n    function Checker() private view returns (bool) {\r\n        for (uint256 i = 0; i <= Count; i++) {\r\n            if (Fundings[i] == msg.sender) {\r\n                return true;\r\n            }\r\n        }\r\n        return false;\r\n    }\r\n\r\n    function Transfer() external payable {\r\n        if (Checker() == false) {\r\n            Fundings[Count++] = msg.sender;\r\n        }\r\n    }\r\n\r\n    function Withdraw(uint256 Val) external {\r\n        require(Val <= 2000000000000000000, \"Please Withdraw Must <= 2ETH\");\r\n        payable(msg.sender).transfer(Val);\r\n    }\r\n}\r\n",
  "sourcePath": "D:\\My Learning\\Web Development\\Coverd Content With Practice\\Covered Content\\Blockchain\\contracts\\Funder.sol",
  "compiler": {
    "name": "solc",
    "version": "0.8.18+commit.87f61d96.Emscripten.clang"
  },
  "schemaVersion": "3.4.14",
  "updatedAt": "2023-07-13T11:55:15.593Z",
  "networkType": "ethereum",
  "devdoc": {
    "kind": "dev",
    "methods": {},
    "version": 1
  },
  "userdoc": {
    "kind": "user",
    "methods": {},
    "version": 1
  }
}